:020000040800F2
:100000000050002021020008290200082D020008EB
:10001000A1020008A5020008ED020008000000008F
:100020000000000000000000000000003503000890
:1000300039030008000000003D030008210F0008FC
:100040005103000851030008510300085103000840
:100050005103000851030008510300085103000830
:100060005103000851030008510300085103000820
:100070005103000851030008510300085103000810
:100080005103000851030008510300085103000800
:1000900051030008510300085103000851030008F0
:1000A00051030008510300085103000851030008E0
:1000B00051030008510300085103000851030008D0
:1000C00051030008510300085103000851030008C0
:1000D00051030008510300085103000851030008B0
:1000E00051030008510300085103000800000000FC
:1000F0000000000000000000000000000000000000
:1001000000000000000000005FF808F100B583B0B7
:1001100000F096FD304B314A1360314A1360314B89
:10012000314A03E011681960043304322F498B42CD
:10013000F8D32A4B1A682E4B9A4204D1284B1A68DE
:100140002C4B9A4200D0FEE7234B2B4A13602B4ADC
:1001500013602B4B02E000221A600433294A9342B9
:10016000F9D3254B1B6813B9244B1B6803B1FEE779
:1001700000F072FD694601A800F0F2FC224C234B0E
:100180001C1BA410002504E01F4B53F82530984792
:100190000135AC42F8DC1E4C1E4B1C1BA410002584
:1001A00004E01B4B53F8253098470135AC42F8DC8E
:1001B0000099019800F0C6FE0546174C174B1C1B12
:1001C000A41004E0013C144B53F824309847002C51
:1001D000F8DC284600F096FCBABADECA000000201F
:1001E00084000020000000204C200008880000202F
:1001F000785634123254769888000020240100206A
:1002000088000020280100207C0300087C030008EF
:100210007C0300087C0300087C0300087C030008C2
:1002200008B5FFF773FF00BF00BEFEE71EF0040F26
:100230000CBFEFF30880EFF309807146414A104785
:100240002DE9F04182B004468846134B5E6B9F6BEC
:100250009D6A1B6B13F0020F0DD00F4BDB6A002B56
:1002600009DA4BF6AB6100F073FD20B14FF00042AC
:10027000094BDA620CE0094800F084FCCDF80080FC
:100280003B4632462946204600F0EAFC00BEFEE727
:1002900002B0BDE8F08100BF00ED00E0C81F00081B
:1002A00000BEFEE71EF0040F0CBFEFF30880EFF373
:1002B00009807146244A10472DE9F04182B0044676
:1002C0008846084B5E6B9F6B9D6A074800F05AFC9E
:1002D000CDF800803B4632462946204600F0C0FC5F
:1002E00000BEFEE700ED00E0D81F00081EF0040F7E
:1002F0000CBFEFF30880EFF309807146134A1047F3
:100300002DE9F04182B004468846084B5E6B9F6B36
:100310009D6A074800F036FCCDF800803B46324627
:100320002946204600F09CFC00BEFEE700ED00E000
:10033000E41F000800BEFEE700BEFEE700BEFEE7C9
:100340007047000041020008B902000801030008DC
:0403500000BEFEE706
:100354004C20000800000020880000204C200008E9
:100364000000000000000000880000202801002098
:08037400000000000000000081
:10037C0038B504460D46714B984207D003F580639F
:10038C00984203D09F216E4800F0ECFBAB79012B17
:10039C0003D9A0216A4800F0E5FBEB79012B03D9C6
:1003AC00A121674800F0DEFB2B7A012B03D9A22197
:1003BC00634800F0D7FB6B7A012B03D9A32160486B
:1003CC0000F0D0FBAB7A012B03D9A4215C4800F0E0
:1003DC00C9FBEB7A012B03D9A521594800F0C2FBCC
:1003EC00AB78032B03D9A621554800F0BBFBEB7867
:1003FC00032B03D9A721524800F0B4FB2B790F2B08
:10040C0003D9A8214E4800F0ADFB6B79072B03D91B
:10041C00A9214B4800F0A6FB2B88013B9BB2B3F5FE
:10042C00806F03D3AA21464800F09CFB236823F07D
:10043C0002032360236843F001032360002300E0E0
:10044C000133626812F0010F03D14FF6FF72934231
:10045C00F6D1636813F0010F6BD0AB79012B04D18B
:10046C00236843F08003236003E0236823F08003B8
:10047C002360EB79012B04D1236843F04003236004
:10048C0003E0236823F0400323602B7A012B04D173
:10049C00236843F02003236003E0236823F0200348
:1004AC0023606B7A012B04D1236843F01003236083
:1004BC0003E0236823F010032360AB7A012B04D1F3
:1004CC00236843F00803236003E0236823F0080348
:1004DC002360EB7A012B04D1236843F004032360DF
:1004EC0003E0236823F004032360AA78EB781B064F
:1004FC0043EA82732A7943EA02436A7943EA025354
:10050C002A88013A1343E361236823F00103236033
:10051C00002300E00133626812F0010F03D04FF6A4
:10052C00FF729342F6D1636813F0010F03D00020E1
:10053C0038BD002038BD012038BD00BF006400402C
:10054C006C1D000800238371C371037243728372A4
:10055C00C3728370C370032303710223437101239D
:10056C0003807047F8B505460C464F4B984208D0AF
:10057C0003F58063984204D040F207214B4800F009
:10058C00F1FA237A33B1042B04D04FF402714748AB
:10059C0000F0E8FA637A33B1022B04D040F209215F
:1005AC00424800F0DFFAA37A082B04D940F20A2162
:1005BC003E4800F0D7FAAB6813F0806F09D1AB68F6
:1005CC0013F0006F07D1AB6813F0805F05D00226E3
:1005DC0004E0002602E0012600E00426042E60D090
:1005EC00374606F118031B01EA5802F00102EA50E3
:1005FC00237A9BB92368B3F5006F04D34FF40971C8
:10060C002A4800F0AFFA07F118010901685823686D
:10061C00627A42EA435303436B5014E06368B3F1CC
:10062C00005F04D340F22A21204800F09BFA07F126
:10063C001801090168586368227A42EAC302637A96
:10064C00134303436B50A37A03F00F03A37207F118
:10065C0018021201AB18596821F00F015960596842
:10066C00A07A01435960A17B637B1B0443EA0163BD
:10067C00217B43EA0123E17A0B4305EB0717C7F80B
:10068C008831A17C637C1B0443EA0163217C43EA2F
:10069C000123E17B0B43C7F88C31AB5843F00103CA
:1006AC00AB503046F8BD00BF006400406C1D000824
:1006BC0038B505460C46234B984208D003F58063A9
:1006CC00984204D040F252211F4800F04BFA022C01
:1006DC0004D940F253211C4800F044FA012C0DD0EF
:1006EC0014B1022C0ED015E0AB6823F07B4323F43D
:1006FC007F0323F47F4323F0FC030CE0AA68134B25
:10070C00134008E0AB6823F06F4323F47C031B0C0D
:10071C001B0400E000230E4A93420BD001D83BB1DE
:10072C000EE00A4A934207D00A4A934206D007E0E9
:10073C00022038BD012038BD012038BD012038BD54
:10074C00002038BD006400406C1D00080003000848
:10075C000300000400000310F8B505460C46464B98
:10076C0098421BD003F58063984217D003F5806341
:10077C00984213D003F5806398420FD003F5806341
:10078C0098420BD003F58063984207D003F5806341
:10079C00984203D0B221394800F0E4F9E3788BB1E8
:1007AC00042B0FD0282B0DD0482B0BD0142B09D099
:1007BC00102B07D01C2B05D0182B03D0B3212F489E
:1007CC0000F0D0F923881BB9B4212C4800F0CAF9E9
:1007DC00E37803F00F06304613F0100F0AD0A3781D
:1007EC00013BDBB2022B03D9BB21244800F0BAF940
:1007FC00A07830432378E3B12E68002316E0012261
:10080C009A40218832EA01010FD199000F278F40BD
:10081C0026EA070600FA01F10E43E178282901D1F6
:10082C006A6102E0482900D12A610133072BE6D91D
:10083C002E602388FF2B1ED96E68002318E003F16D
:10084C00080101228A40218832EA01010FD1990066
:10085C000F278F4026EA070600FA01F10E43E178D4
:10086C00282900D16A61E178482900D12A61013335
:10087C00072BE4D96E60F8BD000801409C1D0008F0
:10088C004FF6FF730380022383700423C3707047F9
:10089C0038B504460D46431E012B40F290800428C7
:1008AC0000F08D80082800F08A80634B984200F09D
:1008BC0086802033984200F08280604B98427ED034
:1008CC00803398427BD05E4B984278D003F580738E
:1008DC00984274D003F58073984270D0594B98426B
:1008EC006DD003F58063984269D0B0F5805F66D017
:1008FC00B0F5EA1F63D0B0F5EB1F60D0B0F5004F38
:10090C005DD0514B98425AD00133984257D00233A4
:10091C00984254D00433984251D0083398424ED068
:10092C00B0F1201F4BD03033984248D0474B9842FF
:10093C0045D003F58073984241D003F5007398427B
:10094C003DD0434B98423AD003F57063984236D071
:10095C00B0F5011F33D03F4B984230D00133984251
:10096C002DD0023398422AD00433984227D0083332
:10097C00984224D01033984221D0203398421ED074
:10098C00403398421BD08033984218D003F58073C3
:10099C00984214D003F50073984210D003F580638D
:1009AC0098420CD003F50063984208D003F58053AD
:1009BC00984204D040F22A21274800F0D3F8012DA8
:1009CC0004D940F22B21244800F0CCF8002C02DA98
:1009DC00224BDB6901E0214B5B68C4F30340A2B2FC
:1009EC0004F44011B1F5401F07D123F070631B488C
:1009FC00416821F07061416011E014F4801F06D051
:100A0C000321814023EA010343F0706307E0610D89
:100A1C00090102FA01F123EA010343F070631DB1ED
:100A2C00610D09018A401343002C02DA0B4AD36191
:100A3C0038BD0A4A536038BD10001400400016003F
:100A4C000001180000081A0001002000000130000D
:100A5C0000112000010000809C1D000800000140D6
:100A6C0038B504460D460E4B034003B920B940F28D
:100A7C004A410C4800F076F8012D04D940F24B4164
:100A8C00084800F06FF825B1074A93691C4394613C
:100A9C0038BD054A936923EA0404946138BD00BF4C
:100AAC000200C0FFD01D00080010024038B50446FB
:100ABC000D460E4B184200D120B940F269410C484A
:100ACC0000F050F8012D04D940F26A41084800F0BA
:100ADC0049F825B1074AD3691C43D46138BD054A8E
:100AEC00D36923EA0404D46138BD00BF0036018108
:100AFC00D01D000800100240FEE700BF08B50348F7
:100B0C0000F052F80120FFF7F7FF00BF001E0008AD
:100B1C0008B50D4B1B6813B90C4A0B4B1A600A4BEA
:100B2C001A68C31C23F00303134409498B4206D9EA
:100B3C0000F0A6FA0C2303604FF0FF3008BD024909
:100B4C000B60104608BD00BF8C000020280100205F
:100B5C00004C002001230360014B0B60704700BF69
:100B6C000400002008B50A460146024800F004F8CB
:100B7C00FFF7C4FF541E00080FB400B583B004ABDC
:100B8C0053F8042B01938021064800F0E5FA002865
:100B9C0003DD0146034800F049F803B05DF804EBAF
:100BAC0004B070479400002010B5044600F06EFAB3
:100BBC000146204600F03AF80121024800F036F8D0
:100BCC0010BD00BF441F00082DE9F04385B004465A
:100BDC000F46435613BB042528462146ABBE04469C
:100BEC001FE03546102E28BF1025002306E014F90F
:100BFC00011B04AA1A4402F8101C0133AB42F6D3B1
:100C0C0004AA1344002203F8102CE9464FF0040800
:100C1C0040464946ABBE8046761B00E00E46002E91
:100C2C00DFD1384605B0BDE8F08300BF08B5FFF74B
:100C3C00CBFF08BD08B500F0FBF8024B024A9A60E6
:100C4C0008BD00BF00ED00E00000000808B500F092
:100C5C0017F908BDF8B504460D4617461E4626483A
:100C6C00FFF78AFF21682548FFF786FF6168244853
:100C7C00FFF782FFA1682348FFF77EFFE168224857
:100C8C00FFF77AFF21692148FFF776FF6169204859
:100C9C00FFF772FFA1691F48FFF76EFFE1691E485D
:100CAC00FFF76AFF1D48FFF767FF29461C48FFF74F
:100CBC0063FF1C4CE16A1C48FFF75EFF216B1B486D
:100CCC00FFF75AFFE16B1A48FFF756FF15F0800F3C
:100CDC0003D039461748FFF74FFF15F4004F03D0E8
:100CEC0031461548FFF748FF1448FFF745FF0699B2
:100CFC001348FFF741FFF8BDAC1E0008BC1E0008EE
:100D0C00CC1E0008DC1E0008EC1E0008FC1E0008AF
:100D1C000C1F00081C1F00082C1F00083C1F00089B
:100D2C00481F000800ED00E0581F0008681F00086D
:100D3C00781F0008881F0008981F0008A81F0008CB
:100D4C00B01F000883691A888A4207D10268033AE7
:100D5C00012A05D8023383610120704700207047B7
:100D6C000020704782B00023019300932C4A136833
:100D7C0043F4803313602A4B1B6803F40033009355
:100D8C00019B01330193009B1BB9019BB3F5A06F31
:100D9C00F1D1234B1B6813F4003F02D001230093C5
:100DAC0001E000230093009B012B36D11D4B1A68E8
:100DBC0042F010021A601A6822F003021A601A68D4
:100DCC0042F002021A60A3F580535A685A605A68BE
:100DDC005A605A6842F480625A605A6822F47C1253
:100DEC005A605A6842F4E8125A601A6842F08072EB
:100DFC001A600B4B1B6813F0007FFAD0084B5A6833
:100E0C0022F003025A605A6842F002025A60044B04
:100E1C005B6803F00C03082BF9D102B0704700BFDC
:100E2C00001002400020024008B5FFF79BFF08BDF0
:100E3C0008B5104B1A6842F001021A6059680E4A44
:100E4C000A405A601A6822F0847222F480321A60C6
:100E5C001A6822F480221A605A6822F4FE025A6040
:100E6C004FF41F029A60FFF7DFFF4FF00062034B55
:100E7C009A6008BD001002400000FFF800ED00E091
:100E8C001F4B5B6803F00C03042B06D0082B08D017
:100E9C003BBB1C4A1C4B1A6026E01A4A1A4B1A60C0
:100EAC0022E0174A53685268C3F38343023312F4A7
:100EBC00803F05D1154A02FB03F3134A136013E07C
:100ECC000F4A526812F4003F05D0104A02FB03F39C
:100EDC000D4A136008E00B4A02FB03F30A4A136045
:100EEC0002E0084A084B1A60054B5B68C3F3031316
:100EFC00074AD35CDAB204490B68D3400B607047E5
:100F0C000010024000127A001C00002000093D0075
:100F1C000C000020024A136801331360704700BFB5
:100F2C0020010020034B1A68024B1B689B1A83425A
:100F3C00FAD370472001002070B58CB000230B93BE
:100F4C000A93FFF775FF474C21684748FFF714FEDB
:100F5C002368464AA2FB03239B09013BB3F1807F24
:100F6C0009D2434A5360F021424B83F823100023EB
:100F7C0093600723136001210820FFF771FD012105
:100F8C004FF00070FFF792FD01210846FFF768FD56
:100F9C0001214FF4EA10FFF77BFC09A8FFF770FC66
:100FAC0018238DF827304FF40073ADF82430032547
:100FBC008DF82650304C09A92046FFF7CDFB48266A
:100FCC008DF827604FF48073ADF8243009A92046C2
:100FDC00FFF7C2FB06A8FFF7B5FA01238DF8213005
:100FEC0000248DF81B408DF81C508DF81D504FF4CB
:100FFC00C873ADF818308DF81A4006A91F48FFF7D2
:10100C00B7F90B90029403940494059440F2A11345
:10101C00019308238DF80E3013238DF80F308DF8C3
:10102C00116045238DF812304C238DF813308DF858
:10103C0014304F238DF815300A238DF8163001A982
:10104C000E48FFF78FFA0A904FF47A70FFF76AFF99
:10105C000A99C9B20948FFF72BFB0B900B9B022B8B
:10106C00F6D0ECE71C000020F41F0008D34D6210F2
:10107C0010E000E000ED00E0000C014000640040D6
:10108C00014B1868704700BF2000002020F00301BE
:10109C0010F00300C0F1000051F8043B00F1040C07
:1010AC004FEACC0C6FF000021CBF22FA0CF2134377
:1010BC004FF0010C4CEA0C2C4CEA0C4CA3EB0C0240
:1010CC0022EA030212EACC1204BF51F8043B0430AA
:1010DC00F4D0C2F1000102EA0102B2FA82F2C2F1CA
:1010EC001F0200EBD200704770B5002A9AB005467B
:1010FC002DDB14461A464FF4027300910491ADF89F
:10110C000C304FF6FF760FD0013C1E9B69460294C3
:10111C000594ADF80E6000F013F9421C10DB009B37
:10112C0000221A701AB070BD1E9B69460294059479
:10113C00ADF80E6000F004F9431C04DB1AB070BD6E
:10114C008B232B60EBE78B232B601AB070BD8B23AA
:10115C0003604FF0FF30F1E710B5064C82B00093FE
:10116C00246813460A4601462046FFF7BDFF02B02D
:10117C0010BD00BF200000202DE9F84F8E680C46F2
:10118C009E421F46904612D88B8913F4906F10D153
:10119C00354620682A46414600F09AFCA36822682E
:1011AC009E1B1544A66025600020BDE8F88F1E46E6
:1011BC00EEE74D692268096905EB4505C1EB020AAA
:1011CC00814605EBD5750AF101006D103844A84233
:1011DC002A4684BF05462A465B0510D5114648466B
:1011EC0000F020FD8346F8B15246216900F0FAFB6D
:1011FC00A38923F4906343F08003A38104E0484661
:10120C0000F06EFD834658B1CAEB05030BEB0A00E8
:10121C0065613E46C4F810B02060A3603D46B9E756
:10122C002169484600F0B8FC0C23C9F80030A389AA
:10123C004FF0FF3043F04003A381BDE8F88F00BFAF
:10124C002DE9F04F936883B09046002B72D04FF08D
:10125C0000090D464C468346166808688B68002CBE
:10126C0045D09C421F469A4646D3AB8913F4906FE7
:10127C002DD06F69296907EB4707C1EB000A07EB13
:10128C00D777601C7F105044B8423A4684BF07465B
:10129C003A465B0533D51146584600F0C3FC00288E
:1012AC0037D052462969019000F09CFBAA89019B1A
:1012BC0022F4906242F08002AA81CAEB070203EB8F
:1012CC000A006F61A24627462B612860AA6052462D
:1012DC00494600F0FDFBD8F80820AB682868DB1BFA
:1012EC005044141BAB602860C8F8084014B3D6F8FF
:1012FC00009074680836B2E72746A246E7E75846DE
:10130C0000F0EEFC03460028D7D12969584600F0BE
:10131C0043FC0C23CBF80030AB89002243F0400394
:10132C004FF0FF30AB81C8F80820C8F8042003B098
:10133C00BDE8F08F0020C8F8040003B0BDE8F08FC2
:10134C002DE9F04F0F4689899DB00C069246039308
:10135C00804603D53B69002B00F0F78030238DF8D5
:10136C002A309AF80030002120227F4DDFF8FC91C2
:10137C0009918DF82920002B00F08C80252B5446E8
:10138C0003D117E0252B00F08E8014F8013F002BC1
:10139C00F8D1B4EB0A0B7DD052465B463946404639
:1013AC00FFF7EAFE013075D0099B22785B44099364
:1013BC00002A6FD000224FF0FF31631C0492079279
:1013CC0006928DF853201A920591012405E0049A97
:1013DC00401B04FA00F0104304901978052262486F
:1013EC009A4600F0B9FA0AF101030028EFD1049BE8
:1013FC00D80644BF20228DF8532019079AF8001004
:10140C0044BF2B228DF853202A296FD0A1F1300232
:10141C00092A0BD8079B1AF8011F03EB830302EB75
:10142C004303A1F13002092AF5D907932E2945D09F
:10143C0003224E4800F090FA50B10499C9EB000019
:10144C00402202FA00F041EA00030AF1010A049377
:10145C009AF800300622194645488DF828300AF1D2
:10146C00010A00F079FA002865D0424BFBB103ABBE
:10147C0000933A46404B04A94046AFF30080064621
:10148C00721C07D0099B334409939AF80030002B47
:10149C007FF474AFBB895B0654BF09984FF0FF30E3
:1014AC001DB0BDE8F08FB4EB0A0B83D074E7039B3F
:1014BC00073323F0070308330393E3E79AF801108B
:1014CC002A291FD0A1F130020023092A0AF1010AAE
:1014DC000593ADD81AF8011F03EB830302EB43030A
:1014EC00A1F13002092AF5D90593A1E7039A1168F5
:1014FC0004320029039218DB07919AF801100AF1C3
:10150C00010A93E7039B0AF102001A680433002ACC
:10151C000393B8BF4FF0FF330592AEBF9AF8021099
:10152C009AF802100593824682E7494243F002037F
:10153C0007910493E1E703AB00933A460E4B04A9E1
:10154C00404600F0B5F806469AE7402100F06AFBE9
:10155C003860386110B140237B61FFE60C23C8F87A
:10156C0000304FF0FF309BE71020000818200008D7
:10157C001C20000800000000851100082DE9F04730
:10158C000D690C46896891468D422A46B8BF0A46B9
:10159C00C9F8002094F8431006461F46DDF8208059
:1015AC0011B10132C9F80020236899065DD5D9F82C
:1015BC0000200232C9F80020236813F0060F1946E8
:1015CC001DD1E1688A1A002AD8BF194617DD04F12B
:1015DC00190A002505E0E368D9F800209B1AAB42F4
:1015EC000CDD0123524639463046C047013005F127
:1015FC000105F0D14FF0FF30BDE8F087216894F879
:10160C004330003318BF01238A060AD5E218302173
:10161C0082F8431094F845105A1C224482F8431067
:10162C00023304F1430239463046C0470130E1D061
:10163C00236803F00603042B29D0A3682269934284
:10164C00C8BF4FF000092FDD9B1A99441A340025AE
:10165C0001E04D4528D00123224639463046C0478B
:10166C00013005F10105F4D1C4E713F0060F08D1E0
:10167C00E168D9F800208A1A002AD8BF1946A6DCDE
:10168C00BDE794F84330003318BF0123C9E7D9F8FC
:10169C000000E168A3682269091A934221EAE17902
:1016AC00D2DCB9F1000FD1D10020BDE8F08700BF2A
:1016BC002DE9F0430C46097E85B06E290646174687
:1016CC00984604F1430C0C985AD01AD8632900F0B0
:1016DC00128100F2D68000295CD0582940F0F580A8
:1016EC0084F84510226803681506DFF864E203F1FC
:1016FC0004011ED4550653BF1B6801601B88016092
:10170C0019E0732900F0CF807ED86F2900F0E480B7
:10171C00702940F0DA80226842F02002226078239F
:10172C0084F8453003681506DFF828E203F104015C
:10173C00E0D51B680160D00744BF42F02002226054
:10174C00002B40F090802268102122F020022260B1
:10175C00002284F8432060680028A060C0F28880D2
:10176C00226822F004022260002B62D1002840F093
:10177C008180654608296AD0C5EB0C0323610CE017
:10178C0023681A0640F1D58003686269191D01604F
:10179C001B681A60654600232361CDF800803B4628
:1017AC0003AA21463046FFF7E9FE013021D02A4634
:1017BC00236939463046C04701301AD02368039854
:1017CC0013F0020FE36819D01A1A002A16DD04F17F
:1017DC001909002504E0E36803981A1AAA420DDDE2
:1017EC0001234A4639463046C047013005F1010510
:1017FC00F1D14FF0FF3005B0BDE8F0839842B8BF8F
:10180C00184605B0BDE8F083752965D078295CD100
:10181C00226884E761682D200029C3F10003A160D0
:10182C0084F8430021DB22F00402DFF824E122607B
:10183C000A216546B3FBF1F201FB12331EF80300DB
:10184C00134605F8010D002AF4D1082994D1236818
:10185C00D90791D5626823699A428DDC302305F84B
:10186C00013C013D88E7102172E7DFF8E4E00A2132
:10187C00002BDED19EF8003004F1420584F8423092
:10188C0078E7642901D069291FD1226803681506FD
:10189C0003F104013AD51B680160002BBADBDFF8B9
:1018AC00B0E00A2157E703686268191D01601D68E2
:1018BC000021284600F050F8002846D0401B6060FC
:1018CC002061002384F8433067E7012384F8421039
:1018DC00236104F14205F4E723681A061ED5036858
:1018EC001A1D1B680260227EDFF864E06F2A14BFA9
:1018FC000A2108212CE703680122191D1B6804F139
:10190C004205016084F842302261DAE7550653BF84
:10191C001B680160B3F900300160BEE713F0400FA3
:10192C00036803F1040215BF02601B681B88026088
:10193C00D9E713F0400F0368626903F104010160F9
:10194C001B6814BF1A801A6024E76068B8E700BFF0
:10195C002420000838200008830770B4CDB23DD095
:10196C00531E02B30278AA421ED0421C04E0D3B12B
:10197C000478013BAC4217D012F0030F104602F171
:10198C000102F4D1032B11D853B30278AA420BD025
:10199C000344421C02E00178A94205D09342104650
:1019AC0002F10102F7D1002070BC704704460E0210
:1019BC0006F47F462E4346EA0646226820467240CD
:1019CC00A2F1013121EA020212F0803F04F1040479
:1019DC00DBD1043B032B2046EFD8D5E71346D1E7E8
:1019EC001846E1E7844641EA000313F0030349D1AA
:1019FC00403A23D30B6803604B6843608B68836069
:101A0C00CB68C3600B6903614B6943618B6983616C
:101A1C00CB69C3610B6A03624B6A43628B6A836254
:101A2C00CB6AC3620B6B03634B6B43638B6B83633C
:101A3C00CB6BC36340304031403ADBD230320BD3F6
:101A4C000B6803604B6843608B688360CB68C36032
:101A5C0010301031103AF3D20C3205D351F8043B4C
:101A6C0040F8043B043AF9D2043208D0D2071CBF28
:101A7C0011F8013B00F8013B01D30B880380604651
:101A8C00704700BF082A13D38B07B1D010F00303A3
:101A9C00AED0C3F10403D21ADB071CBF11F8013B13
:101AAC0000F8013BA4D331F8023B20F8023B9FE73E
:101ABC00043AD9D3013A11F8013B00F8013BF9D2B1
:101ACC000B7803704B7843708B788370604670474B
:101ADC008842F0B50DD98B1898420AD28118002A89
:101AEC0051D09A1A13F8014D934201F8014DF9D1D6
:101AFC00F0BD0F2A48D941EA00039B0746D1154691
:101B0C0000F1100401F1100353F8106C103D44F86F
:101B1C00106C53F80C6C0F2D44F80C6C53F8086CCB
:101B2C0004F1100444F8186C53F8046C03F110031E
:101B3C0044F8146CE8D8A2F1100323F00F0302F060
:101B4C000F0E1033BEF1030F1944034421D90E4676
:101B5C0074461D1F56F8047B043C032C45F8047F87
:101B6C00F8D8AEF1040424F00304043423442144D3
:101B7C0002F0030262B1013B0A4411F8014B8A42A4
:101B8C0003F8014FF9D1F0BD0346F3E70346F2E742
:101B9C00F0BD7246EEE700BF30B481B151F8043CA1
:101BAC000439002BB8BFC9181D4B1A682AB18A42D8
:101BBC000AD908680C18A24225D04A60196030BCBA
:101BCC0070478B4203D81A465368002BF9D114681E
:101BDC0015198D420CD007D808680C189C4218D0E7
:101BEC0030BC4B60516070470C23036030BC7047B5
:101BFC0009680C44111999421460E0D10ACB0C44C9
:101C0C0014605360DBE714685268204481E80500D7
:101C1C00D4E71C685B68204481E809005160CEE77A
:101C2C001401002070B5CD1C25F0030508350C2DD2
:101C3C0038BF0C25002D06463BDBA94239D8274975
:101C4C000A6852B113685B1B04D436E023685B1B33
:101C5C001AD522465468002CF8D149681F4C00292B
:101C6C0036D02946304600F05FF8431C21D0C41C06
:101C7C0024F00304A04205D0211A304600F054F899
:101C8C00013016D0256004E00B2B0DD923601C44C9
:101C9C00256004F10B0020F00700231DC31A02D0AD
:101CAC005A42E25070BD70BD94420ED063685360CE
:101CBC00EFE70C233360002070BD0B2B03D81446C8
:101CCC0053680B60E5E71446E0E713461446F8E763
:101CDC00304600F029F86060C3E700BF1401002013
:101CEC00F9B1F8B506461546B2B10C4600F02EF81F
:101CFC00854201D82046F8BD29463046FFF792FFB1
:101D0C00074668B12A462146FFF76CFE304621464D
:101D1C00FFF742FF3846F8BDFFF73EFF2846F8BDF7
:101D2C00F8BD1146FFF77EBF38B5074C00230546BA
:101D3C0008462360FEF7ECFE431C00D038BD236838
:101D4C00002BFBD02B6038BD1C01002051F8040C7B
:101D5C000028BEBF091851F8043CC018043870475D
:101D6C002E2E2F73797374656D2F7372632F7374AA
:101D7C006D333266312D7374647065726970682FBF
:101D8C0073746D3332663130785F63616E2E63002D
:101D9C002E2E2F73797374656D2F7372632F73747A
:101DAC006D333266312D7374647065726970682F8F
:101DBC0073746D3332663130785F6770696F2E6380
:101DCC00000000002E2E2F73797374656D2F7372C3
:101DDC00632F73746D333266312D73746470657256
:101DEC006970682F73746D3332663130785F72634B
:101DFC00632E630061626F727428292C20657869E8
:101E0C0074696E672E2E2E002C2066756E637469B5
:101E1C006F6E3A2000000000617373657274696F15
:101E2C006E2022257322206661696C65643A2066F7
:101E3C00696C6520222573222C206C696E65202527
:101E4C0064257325730A00006173736572745F7087
:101E5C006172616D2829206661696C65643A20663F
:101E6C00696C6520222573222C206C696E652025F7
:101E7C00640A00006D61696E28617267633D2564B8
:101E8C002C20617267763D5B000000002C20000066
:101E9C0022257322000000005D293B0A000000008F
:101EAC00537461636B206672616D653A0A000000C1
:101EBC00205230203D2020253038580A00000000E8
:101ECC00205231203D2020253038580A00000000D7
:101EDC00205232203D2020253038580A00000000C6
:101EEC00205233203D2020253038580A00000000B5
:101EFC0020523132203D20253038580A0000000095
:101F0C00204C52203D2020253038580A000000007B
:101F1C00205043203D2020253038580A0000000076
:101F2C0020505352203D20253038580A0000000024
:101F3C004653522F4641523A0A0000002043465362
:101F4C0052203D2020253038580A000020484653A6
:101F5C0052203D2020253038580A0000204446539A
:101F6C0052203D2020253038580A0000204146538D
:101F7C0052203D2020253038580A0000204D4D4677
:101F8C004152203D20253038580A0000204246415D
:101F9C0052203D2020253038580A00004D697363CB
:101FAC000A000000204C522F4558435F52455455AF
:101FBC00524E3D20253038580A0000005B486172B3
:101FCC00644661756C745D0A000000005B427573B9
:101FDC004661756C745D0A005B557361676546619B
:101FEC00756C745D0A00000053797374656D206321
:101FFC006C6F636B3A20257520487A0A000000004C
:10200C0043000000232D302B20000000686C4C0096
:10201C006566674546470000303132333435363714
:10202C0038394142434445460000000030313233D8
:10203C0034353637383961626364656600000000F8
:10204C0078563412900000200000000000000000C0
:10205C0000000000010203040607080900A24A045C
:10206C002400002000000000000000000000000020
:10207C000000000000000000000000000000000054
:10208C00000000000C200008000000000000000010
:10209C000000000000000000000000000000000034
:1020AC000000000000000000000000000000000024
:1020BC000000000000000000000000000000000014
:0820CC00000000003254769878
:040000050800010DE1
:00000001FF
